{
  "_format": "hh-sol-artifact-1",
  "contractName": "IndoorComposeNFT",
  "sourceName": "contracts/IndoorComposeNFT.sol",
  "abi": [
    {
      "inputs": [],
      "stateMutability": "nonpayable",
      "type": "constructor"
    },
    {
      "anonymous": false,
      "inputs": [
        {
          "indexed": true,
          "internalType": "address",
          "name": "account",
          "type": "address"
        },
        {
          "indexed": true,
          "internalType": "address",
          "name": "operator",
          "type": "address"
        },
        {
          "indexed": false,
          "internalType": "bool",
          "name": "approved",
          "type": "bool"
        }
      ],
      "name": "ApprovalForAll",
      "type": "event"
    },
    {
      "anonymous": false,
      "inputs": [
        {
          "indexed": true,
          "internalType": "address",
          "name": "previousOwner",
          "type": "address"
        },
        {
          "indexed": true,
          "internalType": "address",
          "name": "newOwner",
          "type": "address"
        }
      ],
      "name": "OwnershipTransferred",
      "type": "event"
    },
    {
      "anonymous": false,
      "inputs": [
        {
          "indexed": false,
          "internalType": "address",
          "name": "account",
          "type": "address"
        }
      ],
      "name": "Paused",
      "type": "event"
    },
    {
      "anonymous": false,
      "inputs": [
        {
          "indexed": true,
          "internalType": "address",
          "name": "operator",
          "type": "address"
        },
        {
          "indexed": true,
          "internalType": "address",
          "name": "from",
          "type": "address"
        },
        {
          "indexed": true,
          "internalType": "address",
          "name": "to",
          "type": "address"
        },
        {
          "indexed": false,
          "internalType": "uint256[]",
          "name": "ids",
          "type": "uint256[]"
        },
        {
          "indexed": false,
          "internalType": "uint256[]",
          "name": "values",
          "type": "uint256[]"
        }
      ],
      "name": "TransferBatch",
      "type": "event"
    },
    {
      "anonymous": false,
      "inputs": [
        {
          "indexed": true,
          "internalType": "address",
          "name": "operator",
          "type": "address"
        },
        {
          "indexed": true,
          "internalType": "address",
          "name": "from",
          "type": "address"
        },
        {
          "indexed": true,
          "internalType": "address",
          "name": "to",
          "type": "address"
        },
        {
          "indexed": false,
          "internalType": "uint256",
          "name": "id",
          "type": "uint256"
        },
        {
          "indexed": false,
          "internalType": "uint256",
          "name": "value",
          "type": "uint256"
        }
      ],
      "name": "TransferSingle",
      "type": "event"
    },
    {
      "anonymous": false,
      "inputs": [
        {
          "indexed": false,
          "internalType": "string",
          "name": "value",
          "type": "string"
        },
        {
          "indexed": true,
          "internalType": "uint256",
          "name": "id",
          "type": "uint256"
        }
      ],
      "name": "URI",
      "type": "event"
    },
    {
      "anonymous": false,
      "inputs": [
        {
          "indexed": false,
          "internalType": "address",
          "name": "account",
          "type": "address"
        }
      ],
      "name": "Unpaused",
      "type": "event"
    },
    {
      "inputs": [
        {
          "internalType": "address",
          "name": "account",
          "type": "address"
        },
        {
          "internalType": "uint256",
          "name": "id",
          "type": "uint256"
        }
      ],
      "name": "balanceOf",
      "outputs": [
        {
          "internalType": "uint256",
          "name": "",
          "type": "uint256"
        }
      ],
      "stateMutability": "view",
      "type": "function"
    },
    {
      "inputs": [
        {
          "internalType": "address[]",
          "name": "accounts",
          "type": "address[]"
        },
        {
          "internalType": "uint256[]",
          "name": "ids",
          "type": "uint256[]"
        }
      ],
      "name": "balanceOfBatch",
      "outputs": [
        {
          "internalType": "uint256[]",
          "name": "",
          "type": "uint256[]"
        }
      ],
      "stateMutability": "view",
      "type": "function"
    },
    {
      "inputs": [
        {
          "internalType": "address",
          "name": "account",
          "type": "address"
        },
        {
          "internalType": "uint256",
          "name": "id",
          "type": "uint256"
        },
        {
          "internalType": "uint256",
          "name": "value",
          "type": "uint256"
        }
      ],
      "name": "burn",
      "outputs": [],
      "stateMutability": "nonpayable",
      "type": "function"
    },
    {
      "inputs": [
        {
          "internalType": "address",
          "name": "account",
          "type": "address"
        },
        {
          "internalType": "uint256[]",
          "name": "ids",
          "type": "uint256[]"
        },
        {
          "internalType": "uint256[]",
          "name": "values",
          "type": "uint256[]"
        }
      ],
      "name": "burnBatch",
      "outputs": [],
      "stateMutability": "nonpayable",
      "type": "function"
    },
    {
      "inputs": [
        {
          "internalType": "uint256",
          "name": "id",
          "type": "uint256"
        }
      ],
      "name": "exists",
      "outputs": [
        {
          "internalType": "bool",
          "name": "",
          "type": "bool"
        }
      ],
      "stateMutability": "view",
      "type": "function"
    },
    {
      "inputs": [
        {
          "internalType": "address",
          "name": "account",
          "type": "address"
        },
        {
          "internalType": "address",
          "name": "operator",
          "type": "address"
        }
      ],
      "name": "isApprovedForAll",
      "outputs": [
        {
          "internalType": "bool",
          "name": "",
          "type": "bool"
        }
      ],
      "stateMutability": "view",
      "type": "function"
    },
    {
      "inputs": [
        {
          "internalType": "uint256",
          "name": "amount",
          "type": "uint256"
        }
      ],
      "name": "mint",
      "outputs": [],
      "stateMutability": "payable",
      "type": "function"
    },
    {
      "inputs": [
        {
          "internalType": "address",
          "name": "to",
          "type": "address"
        },
        {
          "internalType": "uint256[]",
          "name": "ids",
          "type": "uint256[]"
        },
        {
          "internalType": "uint256[]",
          "name": "amounts",
          "type": "uint256[]"
        },
        {
          "internalType": "bytes",
          "name": "data",
          "type": "bytes"
        }
      ],
      "name": "mintBatch",
      "outputs": [],
      "stateMutability": "nonpayable",
      "type": "function"
    },
    {
      "inputs": [],
      "name": "mintPrice",
      "outputs": [
        {
          "internalType": "uint256",
          "name": "",
          "type": "uint256"
        }
      ],
      "stateMutability": "view",
      "type": "function"
    },
    {
      "inputs": [],
      "name": "owner",
      "outputs": [
        {
          "internalType": "address",
          "name": "",
          "type": "address"
        }
      ],
      "stateMutability": "view",
      "type": "function"
    },
    {
      "inputs": [],
      "name": "pause",
      "outputs": [],
      "stateMutability": "nonpayable",
      "type": "function"
    },
    {
      "inputs": [],
      "name": "paused",
      "outputs": [
        {
          "internalType": "bool",
          "name": "",
          "type": "bool"
        }
      ],
      "stateMutability": "view",
      "type": "function"
    },
    {
      "inputs": [],
      "name": "renounceOwnership",
      "outputs": [],
      "stateMutability": "nonpayable",
      "type": "function"
    },
    {
      "inputs": [
        {
          "internalType": "address",
          "name": "from",
          "type": "address"
        },
        {
          "internalType": "address",
          "name": "to",
          "type": "address"
        },
        {
          "internalType": "uint256[]",
          "name": "ids",
          "type": "uint256[]"
        },
        {
          "internalType": "uint256[]",
          "name": "amounts",
          "type": "uint256[]"
        },
        {
          "internalType": "bytes",
          "name": "data",
          "type": "bytes"
        }
      ],
      "name": "safeBatchTransferFrom",
      "outputs": [],
      "stateMutability": "nonpayable",
      "type": "function"
    },
    {
      "inputs": [
        {
          "internalType": "address",
          "name": "from",
          "type": "address"
        },
        {
          "internalType": "address",
          "name": "to",
          "type": "address"
        },
        {
          "internalType": "uint256",
          "name": "id",
          "type": "uint256"
        },
        {
          "internalType": "uint256",
          "name": "amount",
          "type": "uint256"
        },
        {
          "internalType": "bytes",
          "name": "data",
          "type": "bytes"
        }
      ],
      "name": "safeTransferFrom",
      "outputs": [],
      "stateMutability": "nonpayable",
      "type": "function"
    },
    {
      "inputs": [
        {
          "internalType": "address",
          "name": "operator",
          "type": "address"
        },
        {
          "internalType": "bool",
          "name": "approved",
          "type": "bool"
        }
      ],
      "name": "setApprovalForAll",
      "outputs": [],
      "stateMutability": "nonpayable",
      "type": "function"
    },
    {
      "inputs": [
        {
          "internalType": "string",
          "name": "newuri",
          "type": "string"
        }
      ],
      "name": "setURI",
      "outputs": [],
      "stateMutability": "nonpayable",
      "type": "function"
    },
    {
      "inputs": [
        {
          "internalType": "bytes4",
          "name": "interfaceId",
          "type": "bytes4"
        }
      ],
      "name": "supportsInterface",
      "outputs": [
        {
          "internalType": "bool",
          "name": "",
          "type": "bool"
        }
      ],
      "stateMutability": "view",
      "type": "function"
    },
    {
      "inputs": [
        {
          "internalType": "uint256",
          "name": "id",
          "type": "uint256"
        }
      ],
      "name": "totalSupply",
      "outputs": [
        {
          "internalType": "uint256",
          "name": "",
          "type": "uint256"
        }
      ],
      "stateMutability": "view",
      "type": "function"
    },
    {
      "inputs": [
        {
          "internalType": "address",
          "name": "newOwner",
          "type": "address"
        }
      ],
      "name": "transferOwnership",
      "outputs": [],
      "stateMutability": "nonpayable",
      "type": "function"
    },
    {
      "inputs": [],
      "name": "unpause",
      "outputs": [],
      "stateMutability": "nonpayable",
      "type": "function"
    },
    {
      "inputs": [
        {
          "internalType": "uint256",
          "name": "_Id",
          "type": "uint256"
        }
      ],
      "name": "uri",
      "outputs": [
        {
          "internalType": "string",
          "name": "",
          "type": "string"
        }
      ],
      "stateMutability": "view",
      "type": "function"
    },
    {
      "inputs": [
        {
          "internalType": "address",
          "name": "_addr",
          "type": "address"
        }
      ],
      "name": "withdraw",
      "outputs": [],
      "stateMutability": "nonpayable",
      "type": "function"
    }
  ],
  "bytecode": "0x608060405266d529ae9e8600006005553480156200001c57600080fd5b50604051806080016040528060438152602001620048a86043913962000048816200008a60201b60201c565b50620000696200005d620000a660201b60201c565b620000ae60201b60201c565b6000600360146101000a81548160ff02191690831515021790555062000289565b8060029080519060200190620000a292919062000174565b5050565b600033905090565b6000600360009054906101000a900473ffffffffffffffffffffffffffffffffffffffff16905081600360006101000a81548173ffffffffffffffffffffffffffffffffffffffff021916908373ffffffffffffffffffffffffffffffffffffffff1602179055508173ffffffffffffffffffffffffffffffffffffffff168173ffffffffffffffffffffffffffffffffffffffff167f8be0079c531659141344cd1fd0a4f28419497f9722a3daafe3b4186f6b6457e060405160405180910390a35050565b828054620001829062000253565b90600052602060002090601f016020900481019282620001a65760008555620001f2565b82601f10620001c157805160ff1916838001178555620001f2565b82800160010185558215620001f2579182015b82811115620001f1578251825591602001919060010190620001d4565b5b50905062000201919062000205565b5090565b5b808211156200022057600081600090555060010162000206565b5090565b7f4e487b7100000000000000000000000000000000000000000000000000000000600052602260045260246000fd5b600060028204905060018216806200026c57607f821691505b6020821081141562000283576200028262000224565b5b50919050565b61460f80620002996000396000f3fe60806040526004361061013f5760003560e01c80636817c76c116100b6578063a22cb4651161006f578063a22cb46514610424578063bd85b0391461044d578063e985e9c51461048a578063f242432a146104c7578063f2fde38b146104f0578063f5298aca146105195761013f565b80636817c76c1461035b5780636b20c45414610386578063715018a6146103af5780638456cb59146103c65780638da5cb5b146103dd578063a0712d68146104085761013f565b80632eb2c2d6116101085780632eb2c2d61461024d5780633f4ba83a146102765780634e1273f41461028d5780634f558e79146102ca57806351cff8d9146103075780635c975abb146103305761013f565b8062fdd58e1461014457806301ffc9a71461018157806302fe5305146101be5780630e89341c146101e75780631f7fdffa14610224575b600080fd5b34801561015057600080fd5b5061016b60048036038101906101669190612b94565b610542565b6040516101789190612be3565b60405180910390f35b34801561018d57600080fd5b506101a860048036038101906101a39190612c56565b61060b565b6040516101b59190612c9e565b60405180910390f35b3480156101ca57600080fd5b506101e560048036038101906101e09190612dff565b6106ed565b005b3480156101f357600080fd5b5061020e60048036038101906102099190612e48565b610701565b60405161021b9190612efd565b60405180910390f35b34801561023057600080fd5b5061024b60048036038101906102469190613088565b610784565b005b34801561025957600080fd5b50610274600480360381019061026f9190613143565b61079e565b005b34801561028257600080fd5b5061028b61083f565b005b34801561029957600080fd5b506102b460048036038101906102af91906132d5565b610851565b6040516102c1919061340b565b60405180910390f35b3480156102d657600080fd5b506102f160048036038101906102ec9190612e48565b61096a565b6040516102fe9190612c9e565b60405180910390f35b34801561031357600080fd5b5061032e6004803603810190610329919061342d565b61097e565b005b34801561033c57600080fd5b506103456109d6565b6040516103529190612c9e565b60405180910390f35b34801561036757600080fd5b506103706109ed565b60405161037d9190612be3565b60405180910390f35b34801561039257600080fd5b506103ad60048036038101906103a8919061345a565b6109f3565b005b3480156103bb57600080fd5b506103c4610a90565b005b3480156103d257600080fd5b506103db610aa4565b005b3480156103e957600080fd5b506103f2610ab6565b6040516103ff91906134f4565b60405180910390f35b610422600480360381019061041d9190612e48565b610ae0565b005b34801561043057600080fd5b5061044b6004803603810190610446919061353b565b610b4e565b005b34801561045957600080fd5b50610474600480360381019061046f9190612e48565b610b64565b6040516104819190612be3565b60405180910390f35b34801561049657600080fd5b506104b160048036038101906104ac919061357b565b610b81565b6040516104be9190612c9e565b60405180910390f35b3480156104d357600080fd5b506104ee60048036038101906104e991906135bb565b610c15565b005b3480156104fc57600080fd5b506105176004803603810190610512919061342d565b610cb6565b005b34801561052557600080fd5b50610540600480360381019061053b9190613652565b610d3a565b005b60008073ffffffffffffffffffffffffffffffffffffffff168373ffffffffffffffffffffffffffffffffffffffff1614156105b3576040517f08c379a00000000000000000000000000000000000000000000000000000000081526004016105aa90613717565b60405180910390fd5b60008083815260200190815260200160002060008473ffffffffffffffffffffffffffffffffffffffff1673ffffffffffffffffffffffffffffffffffffffff16815260200190815260200160002054905092915050565b60007fd9b67a26000000000000000000000000000000000000000000000000000000007bffffffffffffffffffffffffffffffffffffffffffffffffffffffff1916827bffffffffffffffffffffffffffffffffffffffffffffffffffffffff191614806106d657507f0e89341c000000000000000000000000000000000000000000000000000000007bffffffffffffffffffffffffffffffffffffffffffffffffffffffff1916827bffffffffffffffffffffffffffffffffffffffffffffffffffffffff1916145b806106e657506106e582610dd7565b5b9050919050565b6106f5610e41565b6106fe81610ebf565b50565b606061070c8261096a565b61074b576040517f08c379a000000000000000000000000000000000000000000000000000000000815260040161074290613783565b60405180910390fd5b61075482610ed9565b61075d83610f6d565b60405160200161076e92919061382b565b6040516020818303038152906040529050919050565b61078c610e41565b61079884848484611045565b50505050565b6107a6611272565b73ffffffffffffffffffffffffffffffffffffffff168573ffffffffffffffffffffffffffffffffffffffff1614806107ec57506107eb856107e6611272565b610b81565b5b61082b576040517f08c379a0000000000000000000000000000000000000000000000000000000008152600401610822906138cc565b60405180910390fd5b610838858585858561127a565b5050505050565b610847610e41565b61084f61159c565b565b60608151835114610897576040517f08c379a000000000000000000000000000000000000000000000000000000000815260040161088e9061395e565b60405180910390fd5b6000835167ffffffffffffffff8111156108b4576108b3612cd4565b5b6040519080825280602002602001820160405280156108e25781602001602082028036833780820191505090505b50905060005b845181101561095f5761092f8582815181106109075761090661397e565b5b60200260200101518583815181106109225761092161397e565b5b6020026020010151610542565b8282815181106109425761094161397e565b5b60200260200101818152505080610958906139dc565b90506108e8565b508091505092915050565b60008061097683610b64565b119050919050565b610986610e41565b60004790508173ffffffffffffffffffffffffffffffffffffffff166108fc829081150290604051600060405180830381858888f193505050501580156109d1573d6000803e3d6000fd5b505050565b6000600360149054906101000a900460ff16905090565b60055481565b6109fb611272565b73ffffffffffffffffffffffffffffffffffffffff168373ffffffffffffffffffffffffffffffffffffffff161480610a415750610a4083610a3b611272565b610b81565b5b610a80576040517f08c379a0000000000000000000000000000000000000000000000000000000008152600401610a77906138cc565b60405180910390fd5b610a8b8383836115ff565b505050565b610a98610e41565b610aa260006118ce565b565b610aac610e41565b610ab4611994565b565b6000600360009054906101000a900473ffffffffffffffffffffffffffffffffffffffff16905090565b60055481610aee9190613a25565b3414610b2f576040517f08c379a0000000000000000000000000000000000000000000000000000000008152600401610b2690613acb565b60405180910390fd5b610b4b33600083604051806020016040528060008152506119f7565b50565b610b60610b59611272565b8383611ba8565b5050565b600060046000838152602001908152602001600020549050919050565b6000600160008473ffffffffffffffffffffffffffffffffffffffff1673ffffffffffffffffffffffffffffffffffffffff16815260200190815260200160002060008373ffffffffffffffffffffffffffffffffffffffff1673ffffffffffffffffffffffffffffffffffffffff16815260200190815260200160002060009054906101000a900460ff16905092915050565b610c1d611272565b73ffffffffffffffffffffffffffffffffffffffff168573ffffffffffffffffffffffffffffffffffffffff161480610c635750610c6285610c5d611272565b610b81565b5b610ca2576040517f08c379a0000000000000000000000000000000000000000000000000000000008152600401610c99906138cc565b60405180910390fd5b610caf8585858585611d15565b5050505050565b610cbe610e41565b600073ffffffffffffffffffffffffffffffffffffffff168173ffffffffffffffffffffffffffffffffffffffff161415610d2e576040517f08c379a0000000000000000000000000000000000000000000000000000000008152600401610d2590613b5d565b60405180910390fd5b610d37816118ce565b50565b610d42611272565b73ffffffffffffffffffffffffffffffffffffffff168373ffffffffffffffffffffffffffffffffffffffff161480610d885750610d8783610d82611272565b610b81565b5b610dc7576040517f08c379a0000000000000000000000000000000000000000000000000000000008152600401610dbe906138cc565b60405180910390fd5b610dd2838383611fb1565b505050565b60007f01ffc9a7000000000000000000000000000000000000000000000000000000007bffffffffffffffffffffffffffffffffffffffffffffffffffffffff1916827bffffffffffffffffffffffffffffffffffffffffffffffffffffffff1916149050919050565b610e49611272565b73ffffffffffffffffffffffffffffffffffffffff16610e67610ab6565b73ffffffffffffffffffffffffffffffffffffffff1614610ebd576040517f08c379a0000000000000000000000000000000000000000000000000000000008152600401610eb490613bc9565b60405180910390fd5b565b8060029080519060200190610ed5929190612a49565b5050565b606060028054610ee890613c18565b80601f0160208091040260200160405190810160405280929190818152602001828054610f1490613c18565b8015610f615780601f10610f3657610100808354040283529160200191610f61565b820191906000526020600020905b815481529060010190602001808311610f4457829003601f168201915b50505050509050919050565b606060006001610f7c846121f8565b01905060008167ffffffffffffffff811115610f9b57610f9a612cd4565b5b6040519080825280601f01601f191660200182016040528015610fcd5781602001600182028036833780820191505090505b509050600082602001820190505b60011561103a578080600190039150507f3031323334353637383961626364656600000000000000000000000000000000600a86061a8153600a858161102457611023613c4a565b5b04945060008514156110355761103a565b610fdb565b819350505050919050565b600073ffffffffffffffffffffffffffffffffffffffff168473ffffffffffffffffffffffffffffffffffffffff1614156110b5576040517f08c379a00000000000000000000000000000000000000000000000000000000081526004016110ac90613ceb565b60405180910390fd5b81518351146110f9576040517f08c379a00000000000000000000000000000000000000000000000000000000081526004016110f090613d7d565b60405180910390fd5b6000611103611272565b90506111148160008787878761234b565b60005b84518110156111cd578381815181106111335761113261397e565b5b60200260200101516000808784815181106111515761115061397e565b5b6020026020010151815260200190815260200160002060008873ffffffffffffffffffffffffffffffffffffffff1673ffffffffffffffffffffffffffffffffffffffff16815260200190815260200160002060008282546111b39190613d9d565b9250508190555080806111c5906139dc565b915050611117565b508473ffffffffffffffffffffffffffffffffffffffff16600073ffffffffffffffffffffffffffffffffffffffff168273ffffffffffffffffffffffffffffffffffffffff167f4a39dc06d4c0dbc64b70af90fd698a233a518aa5d07e595d983b8c0526c8f7fb8787604051611245929190613df3565b60405180910390a461125c81600087878787612369565b61126b81600087878787612371565b5050505050565b600033905090565b81518351146112be576040517f08c379a00000000000000000000000000000000000000000000000000000000081526004016112b590613d7d565b60405180910390fd5b600073ffffffffffffffffffffffffffffffffffffffff168473ffffffffffffffffffffffffffffffffffffffff16141561132e576040517f08c379a000000000000000000000000000000000000000000000000000000000815260040161132590613e9c565b60405180910390fd5b6000611338611272565b905061134881878787878761234b565b60005b84518110156114f95760008582815181106113695761136861397e565b5b6020026020010151905060008583815181106113885761138761397e565b5b60200260200101519050600080600084815260200190815260200160002060008b73ffffffffffffffffffffffffffffffffffffffff1673ffffffffffffffffffffffffffffffffffffffff16815260200190815260200160002054905081811015611429576040517f08c379a000000000000000000000000000000000000000000000000000000000815260040161142090613f2e565b60405180910390fd5b81810360008085815260200190815260200160002060008c73ffffffffffffffffffffffffffffffffffffffff1673ffffffffffffffffffffffffffffffffffffffff168152602001908152602001600020819055508160008085815260200190815260200160002060008b73ffffffffffffffffffffffffffffffffffffffff1673ffffffffffffffffffffffffffffffffffffffff16815260200190815260200160002060008282546114de9190613d9d565b92505081905550505050806114f2906139dc565b905061134b565b508473ffffffffffffffffffffffffffffffffffffffff168673ffffffffffffffffffffffffffffffffffffffff168273ffffffffffffffffffffffffffffffffffffffff167f4a39dc06d4c0dbc64b70af90fd698a233a518aa5d07e595d983b8c0526c8f7fb8787604051611570929190613df3565b60405180910390a4611586818787878787612369565b611594818787878787612371565b505050505050565b6115a4612558565b6000600360146101000a81548160ff0219169083151502179055507f5db9ee0a495bf2e6ff9c91a7834c1ba4fdd244a5e8aa4e537bd38aeae4b073aa6115e8611272565b6040516115f591906134f4565b60405180910390a1565b600073ffffffffffffffffffffffffffffffffffffffff168373ffffffffffffffffffffffffffffffffffffffff16141561166f576040517f08c379a000000000000000000000000000000000000000000000000000000000815260040161166690613fc0565b60405180910390fd5b80518251146116b3576040517f08c379a00000000000000000000000000000000000000000000000000000000081526004016116aa90613d7d565b60405180910390fd5b60006116bd611272565b90506116dd8185600086866040518060200160405280600081525061234b565b60005b835181101561182a5760008482815181106116fe576116fd61397e565b5b60200260200101519050600084838151811061171d5761171c61397e565b5b60200260200101519050600080600084815260200190815260200160002060008973ffffffffffffffffffffffffffffffffffffffff1673ffffffffffffffffffffffffffffffffffffffff168152602001908152602001600020549050818110156117be576040517f08c379a00000000000000000000000000000000000000000000000000000000081526004016117b590614052565b60405180910390fd5b81810360008085815260200190815260200160002060008a73ffffffffffffffffffffffffffffffffffffffff1673ffffffffffffffffffffffffffffffffffffffff168152602001908152602001600020819055505050508080611822906139dc565b9150506116e0565b50600073ffffffffffffffffffffffffffffffffffffffff168473ffffffffffffffffffffffffffffffffffffffff168273ffffffffffffffffffffffffffffffffffffffff167f4a39dc06d4c0dbc64b70af90fd698a233a518aa5d07e595d983b8c0526c8f7fb86866040516118a2929190613df3565b60405180910390a46118c881856000868660405180602001604052806000815250612369565b50505050565b6000600360009054906101000a900473ffffffffffffffffffffffffffffffffffffffff16905081600360006101000a81548173ffffffffffffffffffffffffffffffffffffffff021916908373ffffffffffffffffffffffffffffffffffffffff1602179055508173ffffffffffffffffffffffffffffffffffffffff168173ffffffffffffffffffffffffffffffffffffffff167f8be0079c531659141344cd1fd0a4f28419497f9722a3daafe3b4186f6b6457e060405160405180910390a35050565b61199c6125a1565b6001600360146101000a81548160ff0219169083151502179055507f62e78cea01bee320cd4e420270b5ea74000d11b0c9f74754ebdbfc544b05a2586119e0611272565b6040516119ed91906134f4565b60405180910390a1565b600073ffffffffffffffffffffffffffffffffffffffff168473ffffffffffffffffffffffffffffffffffffffff161415611a67576040517f08c379a0000000000000000000000000000000000000000000000000000000008152600401611a5e90613ceb565b60405180910390fd5b6000611a71611272565b90506000611a7e856125eb565b90506000611a8b856125eb565b9050611a9c8360008985858961234b565b8460008088815260200190815260200160002060008973ffffffffffffffffffffffffffffffffffffffff1673ffffffffffffffffffffffffffffffffffffffff1681526020019081526020016000206000828254611afb9190613d9d565b925050819055508673ffffffffffffffffffffffffffffffffffffffff16600073ffffffffffffffffffffffffffffffffffffffff168473ffffffffffffffffffffffffffffffffffffffff167fc3d58168c5ae7397731d063d5bbf3d657854427343f4c083240f7aacaa2d0f628989604051611b79929190614072565b60405180910390a4611b9083600089858589612369565b611b9f83600089898989612665565b50505050505050565b8173ffffffffffffffffffffffffffffffffffffffff168373ffffffffffffffffffffffffffffffffffffffff161415611c17576040517f08c379a0000000000000000000000000000000000000000000000000000000008152600401611c0e9061410d565b60405180910390fd5b80600160008573ffffffffffffffffffffffffffffffffffffffff1673ffffffffffffffffffffffffffffffffffffffff16815260200190815260200160002060008473ffffffffffffffffffffffffffffffffffffffff1673ffffffffffffffffffffffffffffffffffffffff16815260200190815260200160002060006101000a81548160ff0219169083151502179055508173ffffffffffffffffffffffffffffffffffffffff168373ffffffffffffffffffffffffffffffffffffffff167f17307eab39ab6107e8899845ad3d59bd9653f200f220920489ca2b5937696c3183604051611d089190612c9e565b60405180910390a3505050565b600073ffffffffffffffffffffffffffffffffffffffff168473ffffffffffffffffffffffffffffffffffffffff161415611d85576040517f08c379a0000000000000000000000000000000000000000000000000000000008152600401611d7c90613e9c565b60405180910390fd5b6000611d8f611272565b90506000611d9c856125eb565b90506000611da9856125eb565b9050611db983898985858961234b565b600080600088815260200190815260200160002060008a73ffffffffffffffffffffffffffffffffffffffff1673ffffffffffffffffffffffffffffffffffffffff16815260200190815260200160002054905085811015611e50576040517f08c379a0000000000000000000000000000000000000000000000000000000008152600401611e4790613f2e565b60405180910390fd5b85810360008089815260200190815260200160002060008b73ffffffffffffffffffffffffffffffffffffffff1673ffffffffffffffffffffffffffffffffffffffff168152602001908152602001600020819055508560008089815260200190815260200160002060008a73ffffffffffffffffffffffffffffffffffffffff1673ffffffffffffffffffffffffffffffffffffffff1681526020019081526020016000206000828254611f059190613d9d565b925050819055508773ffffffffffffffffffffffffffffffffffffffff168973ffffffffffffffffffffffffffffffffffffffff168573ffffffffffffffffffffffffffffffffffffffff167fc3d58168c5ae7397731d063d5bbf3d657854427343f4c083240f7aacaa2d0f628a8a604051611f82929190614072565b60405180910390a4611f98848a8a86868a612369565b611fa6848a8a8a8a8a612665565b505050505050505050565b600073ffffffffffffffffffffffffffffffffffffffff168373ffffffffffffffffffffffffffffffffffffffff161415612021576040517f08c379a000000000000000000000000000000000000000000000000000000000815260040161201890613fc0565b60405180910390fd5b600061202b611272565b90506000612038846125eb565b90506000612045846125eb565b90506120658387600085856040518060200160405280600081525061234b565b600080600087815260200190815260200160002060008873ffffffffffffffffffffffffffffffffffffffff1673ffffffffffffffffffffffffffffffffffffffff168152602001908152602001600020549050848110156120fc576040517f08c379a00000000000000000000000000000000000000000000000000000000081526004016120f390614052565b60405180910390fd5b84810360008088815260200190815260200160002060008973ffffffffffffffffffffffffffffffffffffffff1673ffffffffffffffffffffffffffffffffffffffff16815260200190815260200160002081905550600073ffffffffffffffffffffffffffffffffffffffff168773ffffffffffffffffffffffffffffffffffffffff168573ffffffffffffffffffffffffffffffffffffffff167fc3d58168c5ae7397731d063d5bbf3d657854427343f4c083240f7aacaa2d0f6289896040516121c9929190614072565b60405180910390a46121ef84886000868660405180602001604052806000815250612369565b50505050505050565b600080600090507a184f03e93ff9f4daa797ed6e38ed64bf6a1f0100000000000000008310612256577a184f03e93ff9f4daa797ed6e38ed64bf6a1f010000000000000000838161224c5761224b613c4a565b5b0492506040810190505b6d04ee2d6d415b85acef81000000008310612293576d04ee2d6d415b85acef8100000000838161228957612288613c4a565b5b0492506020810190505b662386f26fc1000083106122c257662386f26fc1000083816122b8576122b7613c4a565b5b0492506010810190505b6305f5e10083106122eb576305f5e10083816122e1576122e0613c4a565b5b0492506008810190505b612710831061231057612710838161230657612305613c4a565b5b0492506004810190505b60648310612333576064838161232957612328613c4a565b5b0492506002810190505b600a8310612342576001810190505b80915050919050565b6123536125a1565b61236186868686868661284c565b505050505050565b505050505050565b6123908473ffffffffffffffffffffffffffffffffffffffff16612a1e565b15612550578373ffffffffffffffffffffffffffffffffffffffff1663bc197c8187878686866040518663ffffffff1660e01b81526004016123d6959493929190614182565b602060405180830381600087803b1580156123f057600080fd5b505af192505050801561242157506040513d601f19601f8201168201806040525081019061241e91906141ff565b60015b6124c75761242d614239565b806308c379a0141561248a575061244261425b565b8061244d575061248c565b806040517f08c379a00000000000000000000000000000000000000000000000000000000081526004016124819190612efd565b60405180910390fd5b505b6040517f08c379a00000000000000000000000000000000000000000000000000000000081526004016124be90614363565b60405180910390fd5b63bc197c8160e01b7bffffffffffffffffffffffffffffffffffffffffffffffffffffffff1916817bffffffffffffffffffffffffffffffffffffffffffffffffffffffff19161461254e576040517f08c379a0000000000000000000000000000000000000000000000000000000008152600401612545906143f5565b60405180910390fd5b505b505050505050565b6125606109d6565b61259f576040517f08c379a000000000000000000000000000000000000000000000000000000000815260040161259690614461565b60405180910390fd5b565b6125a96109d6565b156125e9576040517f08c379a00000000000000000000000000000000000000000000000000000000081526004016125e0906144cd565b60405180910390fd5b565b60606000600167ffffffffffffffff81111561260a57612609612cd4565b5b6040519080825280602002602001820160405280156126385781602001602082028036833780820191505090505b50905082816000815181106126505761264f61397e565b5b60200260200101818152505080915050919050565b6126848473ffffffffffffffffffffffffffffffffffffffff16612a1e565b15612844578373ffffffffffffffffffffffffffffffffffffffff1663f23a6e6187878686866040518663ffffffff1660e01b81526004016126ca9594939291906144ed565b602060405180830381600087803b1580156126e457600080fd5b505af192505050801561271557506040513d601f19601f8201168201806040525081019061271291906141ff565b60015b6127bb57612721614239565b806308c379a0141561277e575061273661425b565b806127415750612780565b806040517f08c379a00000000000000000000000000000000000000000000000000000000081526004016127759190612efd565b60405180910390fd5b505b6040517f08c379a00000000000000000000000000000000000000000000000000000000081526004016127b290614363565b60405180910390fd5b63f23a6e6160e01b7bffffffffffffffffffffffffffffffffffffffffffffffffffffffff1916817bffffffffffffffffffffffffffffffffffffffffffffffffffffffff191614612842576040517f08c379a0000000000000000000000000000000000000000000000000000000008152600401612839906143f5565b60405180910390fd5b505b505050505050565b61285a868686868686612a41565b600073ffffffffffffffffffffffffffffffffffffffff168573ffffffffffffffffffffffffffffffffffffffff16141561290c5760005b835181101561290a578281815181106128ae576128ad61397e565b5b6020026020010151600460008684815181106128cd576128cc61397e565b5b6020026020010151815260200190815260200160002060008282546128f29190613d9d565b9250508190555080612903906139dc565b9050612892565b505b600073ffffffffffffffffffffffffffffffffffffffff168473ffffffffffffffffffffffffffffffffffffffff161415612a165760005b8351811015612a145760008482815181106129625761296161397e565b5b6020026020010151905060008483815181106129815761298061397e565b5b60200260200101519050600060046000848152602001908152602001600020549050818110156129e6576040517f08c379a00000000000000000000000000000000000000000000000000000000081526004016129dd906145b9565b60405180910390fd5b818103600460008581526020019081526020016000208190555050505080612a0d906139dc565b9050612944565b505b505050505050565b6000808273ffffffffffffffffffffffffffffffffffffffff163b119050919050565b505050505050565b828054612a5590613c18565b90600052602060002090601f016020900481019282612a775760008555612abe565b82601f10612a9057805160ff1916838001178555612abe565b82800160010185558215612abe579182015b82811115612abd578251825591602001919060010190612aa2565b5b509050612acb9190612acf565b5090565b5b80821115612ae8576000816000905550600101612ad0565b5090565b6000604051905090565b600080fd5b600080fd5b600073ffffffffffffffffffffffffffffffffffffffff82169050919050565b6000612b2b82612b00565b9050919050565b612b3b81612b20565b8114612b4657600080fd5b50565b600081359050612b5881612b32565b92915050565b6000819050919050565b612b7181612b5e565b8114612b7c57600080fd5b50565b600081359050612b8e81612b68565b92915050565b60008060408385031215612bab57612baa612af6565b5b6000612bb985828601612b49565b9250506020612bca85828601612b7f565b9150509250929050565b612bdd81612b5e565b82525050565b6000602082019050612bf86000830184612bd4565b92915050565b60007fffffffff0000000000000000000000000000000000000000000000000000000082169050919050565b612c3381612bfe565b8114612c3e57600080fd5b50565b600081359050612c5081612c2a565b92915050565b600060208284031215612c6c57612c6b612af6565b5b6000612c7a84828501612c41565b91505092915050565b60008115159050919050565b612c9881612c83565b82525050565b6000602082019050612cb36000830184612c8f565b92915050565b600080fd5b600080fd5b6000601f19601f8301169050919050565b7f4e487b7100000000000000000000000000000000000000000000000000000000600052604160045260246000fd5b612d0c82612cc3565b810181811067ffffffffffffffff82111715612d2b57612d2a612cd4565b5b80604052505050565b6000612d3e612aec565b9050612d4a8282612d03565b919050565b600067ffffffffffffffff821115612d6a57612d69612cd4565b5b612d7382612cc3565b9050602081019050919050565b82818337600083830152505050565b6000612da2612d9d84612d4f565b612d34565b905082815260208101848484011115612dbe57612dbd612cbe565b5b612dc9848285612d80565b509392505050565b600082601f830112612de657612de5612cb9565b5b8135612df6848260208601612d8f565b91505092915050565b600060208284031215612e1557612e14612af6565b5b600082013567ffffffffffffffff811115612e3357612e32612afb565b5b612e3f84828501612dd1565b91505092915050565b600060208284031215612e5e57612e5d612af6565b5b6000612e6c84828501612b7f565b91505092915050565b600081519050919050565b600082825260208201905092915050565b60005b83811015612eaf578082015181840152602081019050612e94565b83811115612ebe576000848401525b50505050565b6000612ecf82612e75565b612ed98185612e80565b9350612ee9818560208601612e91565b612ef281612cc3565b840191505092915050565b60006020820190508181036000830152612f178184612ec4565b905092915050565b600067ffffffffffffffff821115612f3a57612f39612cd4565b5b602082029050602081019050919050565b600080fd5b6000612f63612f5e84612f1f565b612d34565b90508083825260208201905060208402830185811115612f8657612f85612f4b565b5b835b81811015612faf5780612f9b8882612b7f565b845260208401935050602081019050612f88565b5050509392505050565b600082601f830112612fce57612fcd612cb9565b5b8135612fde848260208601612f50565b91505092915050565b600067ffffffffffffffff82111561300257613001612cd4565b5b61300b82612cc3565b9050602081019050919050565b600061302b61302684612fe7565b612d34565b90508281526020810184848401111561304757613046612cbe565b5b613052848285612d80565b509392505050565b600082601f83011261306f5761306e612cb9565b5b813561307f848260208601613018565b91505092915050565b600080600080608085870312156130a2576130a1612af6565b5b60006130b087828801612b49565b945050602085013567ffffffffffffffff8111156130d1576130d0612afb565b5b6130dd87828801612fb9565b935050604085013567ffffffffffffffff8111156130fe576130fd612afb565b5b61310a87828801612fb9565b925050606085013567ffffffffffffffff81111561312b5761312a612afb565b5b6131378782880161305a565b91505092959194509250565b600080600080600060a0868803121561315f5761315e612af6565b5b600061316d88828901612b49565b955050602061317e88828901612b49565b945050604086013567ffffffffffffffff81111561319f5761319e612afb565b5b6131ab88828901612fb9565b935050606086013567ffffffffffffffff8111156131cc576131cb612afb565b5b6131d888828901612fb9565b925050608086013567ffffffffffffffff8111156131f9576131f8612afb565b5b6132058882890161305a565b9150509295509295909350565b600067ffffffffffffffff82111561322d5761322c612cd4565b5b602082029050602081019050919050565b600061325161324c84613212565b612d34565b9050808382526020820190506020840283018581111561327457613273612f4b565b5b835b8181101561329d57806132898882612b49565b845260208401935050602081019050613276565b5050509392505050565b600082601f8301126132bc576132bb612cb9565b5b81356132cc84826020860161323e565b91505092915050565b600080604083850312156132ec576132eb612af6565b5b600083013567ffffffffffffffff81111561330a57613309612afb565b5b613316858286016132a7565b925050602083013567ffffffffffffffff81111561333757613336612afb565b5b61334385828601612fb9565b9150509250929050565b600081519050919050565b600082825260208201905092915050565b6000819050602082019050919050565b61338281612b5e565b82525050565b60006133948383613379565b60208301905092915050565b6000602082019050919050565b60006133b88261334d565b6133c28185613358565b93506133cd83613369565b8060005b838110156133fe5781516133e58882613388565b97506133f0836133a0565b9250506001810190506133d1565b5085935050505092915050565b6000602082019050818103600083015261342581846133ad565b905092915050565b60006020828403121561344357613442612af6565b5b600061345184828501612b49565b91505092915050565b60008060006060848603121561347357613472612af6565b5b600061348186828701612b49565b935050602084013567ffffffffffffffff8111156134a2576134a1612afb565b5b6134ae86828701612fb9565b925050604084013567ffffffffffffffff8111156134cf576134ce612afb565b5b6134db86828701612fb9565b9150509250925092565b6134ee81612b20565b82525050565b600060208201905061350960008301846134e5565b92915050565b61351881612c83565b811461352357600080fd5b50565b6000813590506135358161350f565b92915050565b6000806040838503121561355257613551612af6565b5b600061356085828601612b49565b925050602061357185828601613526565b9150509250929050565b6000806040838503121561359257613591612af6565b5b60006135a085828601612b49565b92505060206135b185828601612b49565b9150509250929050565b600080600080600060a086880312156135d7576135d6612af6565b5b60006135e588828901612b49565b95505060206135f688828901612b49565b945050604061360788828901612b7f565b935050606061361888828901612b7f565b925050608086013567ffffffffffffffff81111561363957613638612afb565b5b6136458882890161305a565b9150509295509295909350565b60008060006060848603121561366b5761366a612af6565b5b600061367986828701612b49565b935050602061368a86828701612b7f565b925050604061369b86828701612b7f565b9150509250925092565b7f455243313135353a2061646472657373207a65726f206973206e6f742061207660008201527f616c6964206f776e657200000000000000000000000000000000000000000000602082015250565b6000613701602a83612e80565b915061370c826136a5565b604082019050919050565b60006020820190508181036000830152613730816136f4565b9050919050565b7f75726920646f6573206e6f742065786973740000000000000000000000000000600082015250565b600061376d601283612e80565b915061377882613737565b602082019050919050565b6000602082019050818103600083015261379c81613760565b9050919050565b600081905092915050565b60006137b982612e75565b6137c381856137a3565b93506137d3818560208601612e91565b80840191505092915050565b7f2e6a736f6e000000000000000000000000000000000000000000000000000000600082015250565b60006138156005836137a3565b9150613820826137df565b600582019050919050565b600061383782856137ae565b915061384382846137ae565b915061384e82613808565b91508190509392505050565b7f455243313135353a2063616c6c6572206973206e6f7420746f6b656e206f776e60008201527f6572206f7220617070726f766564000000000000000000000000000000000000602082015250565b60006138b6602e83612e80565b91506138c18261385a565b604082019050919050565b600060208201905081810360008301526138e5816138a9565b9050919050565b7f455243313135353a206163636f756e747320616e6420696473206c656e67746860008201527f206d69736d617463680000000000000000000000000000000000000000000000602082015250565b6000613948602983612e80565b9150613953826138ec565b604082019050919050565b600060208201905081810360008301526139778161393b565b9050919050565b7f4e487b7100000000000000000000000000000000000000000000000000000000600052603260045260246000fd5b7f4e487b7100000000000000000000000000000000000000000000000000000000600052601160045260246000fd5b60006139e782612b5e565b91507fffffffffffffffffffffffffffffffffffffffffffffffffffffffffffffffff821415613a1a57613a196139ad565b5b600182019050919050565b6000613a3082612b5e565b9150613a3b83612b5e565b9250817fffffffffffffffffffffffffffffffffffffffffffffffffffffffffffffffff0483118215151615613a7457613a736139ad565b5b828202905092915050565b7f6e6f7420656e6f756768742066756e6400000000000000000000000000000000600082015250565b6000613ab5601083612e80565b9150613ac082613a7f565b602082019050919050565b60006020820190508181036000830152613ae481613aa8565b9050919050565b7f4f776e61626c653a206e6577206f776e657220697320746865207a65726f206160008201527f6464726573730000000000000000000000000000000000000000000000000000602082015250565b6000613b47602683612e80565b9150613b5282613aeb565b604082019050919050565b60006020820190508181036000830152613b7681613b3a565b9050919050565b7f4f776e61626c653a2063616c6c6572206973206e6f7420746865206f776e6572600082015250565b6000613bb3602083612e80565b9150613bbe82613b7d565b602082019050919050565b60006020820190508181036000830152613be281613ba6565b9050919050565b7f4e487b7100000000000000000000000000000000000000000000000000000000600052602260045260246000fd5b60006002820490506001821680613c3057607f821691505b60208210811415613c4457613c43613be9565b5b50919050565b7f4e487b7100000000000000000000000000000000000000000000000000000000600052601260045260246000fd5b7f455243313135353a206d696e7420746f20746865207a65726f2061646472657360008201527f7300000000000000000000000000000000000000000000000000000000000000602082015250565b6000613cd5602183612e80565b9150613ce082613c79565b604082019050919050565b60006020820190508181036000830152613d0481613cc8565b9050919050565b7f455243313135353a2069647320616e6420616d6f756e7473206c656e6774682060008201527f6d69736d61746368000000000000000000000000000000000000000000000000602082015250565b6000613d67602883612e80565b9150613d7282613d0b565b604082019050919050565b60006020820190508181036000830152613d9681613d5a565b9050919050565b6000613da882612b5e565b9150613db383612b5e565b9250827fffffffffffffffffffffffffffffffffffffffffffffffffffffffffffffffff03821115613de857613de76139ad565b5b828201905092915050565b60006040820190508181036000830152613e0d81856133ad565b90508181036020830152613e2181846133ad565b90509392505050565b7f455243313135353a207472616e7366657220746f20746865207a65726f20616460008201527f6472657373000000000000000000000000000000000000000000000000000000602082015250565b6000613e86602583612e80565b9150613e9182613e2a565b604082019050919050565b60006020820190508181036000830152613eb581613e79565b9050919050565b7f455243313135353a20696e73756666696369656e742062616c616e636520666f60008201527f72207472616e7366657200000000000000000000000000000000000000000000602082015250565b6000613f18602a83612e80565b9150613f2382613ebc565b604082019050919050565b60006020820190508181036000830152613f4781613f0b565b9050919050565b7f455243313135353a206275726e2066726f6d20746865207a65726f206164647260008201527f6573730000000000000000000000000000000000000000000000000000000000602082015250565b6000613faa602383612e80565b9150613fb582613f4e565b604082019050919050565b60006020820190508181036000830152613fd981613f9d565b9050919050565b7f455243313135353a206275726e20616d6f756e7420657863656564732062616c60008201527f616e636500000000000000000000000000000000000000000000000000000000602082015250565b600061403c602483612e80565b915061404782613fe0565b604082019050919050565b6000602082019050818103600083015261406b8161402f565b9050919050565b60006040820190506140876000830185612bd4565b6140946020830184612bd4565b9392505050565b7f455243313135353a2073657474696e6720617070726f76616c2073746174757360008201527f20666f722073656c660000000000000000000000000000000000000000000000602082015250565b60006140f7602983612e80565b91506141028261409b565b604082019050919050565b60006020820190508181036000830152614126816140ea565b9050919050565b600081519050919050565b600082825260208201905092915050565b60006141548261412d565b61415e8185614138565b935061416e818560208601612e91565b61417781612cc3565b840191505092915050565b600060a08201905061419760008301886134e5565b6141a460208301876134e5565b81810360408301526141b681866133ad565b905081810360608301526141ca81856133ad565b905081810360808301526141de8184614149565b90509695505050505050565b6000815190506141f981612c2a565b92915050565b60006020828403121561421557614214612af6565b5b6000614223848285016141ea565b91505092915050565b60008160e01c9050919050565b600060033d11156142585760046000803e61425560005161422c565b90505b90565b600060443d101561426b576142ee565b614273612aec565b60043d036004823e80513d602482011167ffffffffffffffff8211171561429b5750506142ee565b808201805167ffffffffffffffff8111156142b957505050506142ee565b80602083010160043d0385018111156142d65750505050506142ee565b6142e582602001850186612d03565b82955050505050505b90565b7f455243313135353a207472616e7366657220746f206e6f6e2d4552433131353560008201527f526563656976657220696d706c656d656e746572000000000000000000000000602082015250565b600061434d603483612e80565b9150614358826142f1565b604082019050919050565b6000602082019050818103600083015261437c81614340565b9050919050565b7f455243313135353a204552433131353552656365697665722072656a6563746560008201527f6420746f6b656e73000000000000000000000000000000000000000000000000602082015250565b60006143df602883612e80565b91506143ea82614383565b604082019050919050565b6000602082019050818103600083015261440e816143d2565b9050919050565b7f5061757361626c653a206e6f7420706175736564000000000000000000000000600082015250565b600061444b601483612e80565b915061445682614415565b602082019050919050565b6000602082019050818103600083015261447a8161443e565b9050919050565b7f5061757361626c653a2070617573656400000000000000000000000000000000600082015250565b60006144b7601083612e80565b91506144c282614481565b602082019050919050565b600060208201905081810360008301526144e6816144aa565b9050919050565b600060a08201905061450260008301886134e5565b61450f60208301876134e5565b61451c6040830186612bd4565b6145296060830185612bd4565b818103608083015261453b8184614149565b90509695505050505050565b7f455243313135353a206275726e20616d6f756e74206578636565647320746f7460008201527f616c537570706c79000000000000000000000000000000000000000000000000602082015250565b60006145a3602883612e80565b91506145ae82614547565b604082019050919050565b600060208201905081810360008301526145d281614596565b905091905056fea264697066735822122094deedbaaeaea3e14cda7d38fc29e44666a1dc820279605580befa05071bf4af64736f6c63430008090033697066733a2f2f62616679626569613632677177656d68776f65626e6c3233357179366f353670796f6f686e36346e7664666c70353535376a6763323673787033712f",
  "linkReferences": {},
  "deployedLinkReferences": {}
}